00COTAHIST.2026BOVESPA 20260212                        
012026011574IBOVC170    070IBOVE  FM   IBO/      000R$  000000036850000000004000000000000368500000000038425000000004000000000000000000000000000000000002000000000000000400000000000001537000000001700000002026031800001000170000000000BRIBOVINDM18011
012026011574IBOVC180    070IBOVE       IBO/      000R$  000000009100000000001090000000000085500000000010795300000000970000000000000000000000000000000024000000000000189232000000000204282300000001800000002026031800001000180000000000BRIBOVINDM18011
012026011575IBOVO170    080IBOVE       IBO/      000R$  000000043750000000004375000000000437500000000043750000000004375000000000000000000000000000000001000000000000000200000000000000875000000001700000002026031800001000170000000000BRIBOVINDM18011
012026011574IBOVB130    070IBOVE       IBO/      000R$  000000372500000000037250000000003710500000000371220600000037105000000000000000000000000000000002000000000000688900000000025573394000000001300000002026021800001000130000000000BRIBOVINDM18012
012026011574IBOVD180    070IBOVE       IBO/      000R$  000000020000000000002000000000000200000000000020000000000002000000000000000000000000000000000001000000000000000500000000000001000000000001800000002026041500001000180000000000BRIBOVINDM18012
012026011574IBOVE190    070IBOVE       IBO/      000R$  000000013600000000001360000000000136000000000013600000000001360000000000000000000000000000000001000000000000000700000000000000952000000001900000002026051300001000190000000000BRIBOVINDM18012
012026011574IBOVE195    070IBOVE       IBO/      000R$  000000008500000000000850000000000085000000000008500000000000850000000000000000000000000000000002000000000000550000000000000467500000000001950000002026051300001000195000000000BRIBOVINDM18012
012026011575IBOVN130    080IBOVE       IBO/      000R$  000000000850000000000110000000000008500000000001070500000000110000000000000000000004500000000002000000000000688900000000000073751500000001300000002026021800001000130000000000BRIBOVINDM18012
012026011574IBOVE178    070IBOVE       IBO/      000R$  000000041000000000004100000000000382500000000039350000000003825000000000000000000000000000000002000000000000000500000000000001967500000001780000002026051300001000178000000000BRIBOVINDM18013
012026011574IBOVD170    070IBOVE  FM   IBO/      000R$  000000056750000000005675000000000567500000000056750000000005675000000000000000000000000000000001000000000000100000000000000567500000000001700000002026041500001000170000000000BRIBOVINDM18013
012026011574IBOVD172    070IBOVE  FM   IBO/      000R$  000000045050000000004620000000000450500000000046008300000004620000000000000000000000000000000002000000000000000600000000000002760500000001720000002026041500001000172000000000BRIBOVINDM18013
012026011574IBOVF152    070IBOVE       IBO/      000R$  000000217050000000021705000000002014500000000203681400000020150000000000000000000000000000000008000000000000021000000000000427731000000001530000002026061700001000153000000000BRIBOVINDM18013
012026011574IBOVB159    070IBOVE       IBO/      000R$  000000088650000000008870000000000886500000000088658000000008870000000000004500000000000000000002000000000000025000000000000221645000000001590000002026021800001000159000000000BRIBOVINDM18013
012026011574IBOVB165    070IBOVE  FM   IBO/      000R$  000000040550000000004295000000000389500000000040504900000004295000000000000000000000000000000005000000000000001202000000000004868690000001650000002026021800001000165000000000BRIBOVINDM18013
012026011574IBOVB158    070IBOVE       IBO/      000R$  000000098000000000010260000000000908000000000096614800000009560000000000954000000000000000000202000000000000000202000000000001951620000001580000002026021800001000158000000000BRIBOVINDM18013
012026011574IBOVB161    070IBOVE  FM   IBO/      000R$  000000069700000000006970000000000697000000000069700000000006970000000000600000000000000000000002000000000000003800000000000026486000000001610000002026021800001000161000000000BRIBOVINDM18013
012026011574IBOVB162    070IBOVE  FM   IBO/      000R$  000000059850000000006295000000000589500000000060882400000006260000000000000000000000000000000023000000000000009400000000000057229500000001620000002026021800001000162000000000BRIBOVINDM18013
012026011574IBOVB163    070IBOVE  FM   IBO/      000R$  000000054200000000005565000000000531500000000054066600000005565000000000000000000000000000000006000000000000000600000000000003244000000001630000002026021800001000163000000000BRIBOVINDM18013
012026011574IBOVC165    070IBOVE  FM   IBO/      000R$  000000060350000000006035000000000603500000000060350000000006035000000000000000000000000000000001000000000000000100000000000000603500000001650000002026031800001000165000000000BRIBOVINDM18013
012026011574IBOVD168    070IBOVE  FM   IBO/      000R$  000000063650000000006365000000000636500000000063650000000006365000000000000000000000000000000001000000000000000100000000000000636500000001680000002026041500001000168000000000BRIBOVINDM18013
012026011574IBOVD174    070IBOVE  FM   IBO/      000R$  000000034200000000003775000000000326500000000034614200000003775000000000000000000000039000000008000000000000002100000000000007269000000001750000002026041500001000175000000000BRIBOVINDM18013
012026011574IBOVB170    070IBOVE  FM   IBO/      000R$  000000016600000000001975000000000151500000000018453000000001975000000000079000000000000000000009000000000000070702000000000130466490000001700000002026021800001000170000000000BRIBOVINDM18013
012026011574IBOVB18     070IBOVE       IBO/      000R$  000000002400000000000600000000000022500000000003038900000000270000000000000500000000000000000010000000000000737536000000000224132695000001800000002026021800001000180000000000BRIBOVINDM18013
012026011574IBOVD164    070IBOVE  FM   IBO/      000R$  000000083050000000008980000000000820500000000084450000000008980000000000000000000000000000000005000000000000000500000000000004222500000001650000002026041500001000165000000000BRIBOVINDM18013
012026011574IBOVC162    070IBOVE  FM   IBO/      000R$  000000083800000000008380000000000826000000000083200000000008260000000000000000000000000000000002000000000000000200000000000001664000000001620000002026031800001000162000000000BRIBOVINDM18013
012026011574IBOVD162    070IBOVE  FM   IBO/      000R$  000000102800000000011030000000001025000000000103287800000010720000000000000000000000000000000010000000000000003700000000000038216500000001620000002026041500001000162000000000BRIBOVINDM18013
012026011574IBOVD163    070IBOVE  FM   IBO/      000R$  000000098050000000009805000000000980500000000098050000000009805000000000000000000000000000000001000000000000000100000000000000980500000001630000002026041500001000163000000000BRIBOVINDM18013
012026011574IBOVB4      070IBOVE  FM   IBO/      000R$  000000046950000000005185000000000463000000000047560000000005185000000000000000000000000000000010000000000000001000000000000004756000000001640000002026021800001000164000000000BRIBOVINDM18013
012026011574IBOVD3      070IBOVE  FM   IBO/      000R$  000000089550000000008955000000000895500000000089550000000008955000000000000000000000000000000001000000000000000100000000000000895500000001640000002026041500001000164000000000BRIBOVINDM18013
012026011574IBOVD166    070IBOVE  FM   IBO/      000R$  000000080850000000008085000000000804000000000080625000000008040000000000000000000000000000000002000000000000000200000000000001612500000001660000002026041500001000166000000000BRIBOVINDM18013
012026011574IBOVC166    070IBOVE  FM   IBO/      000R$  000000057200000000005720000000000566000000000056847600000005715000000000000000000000000000000004000000000000002500000000000014211905000001660000002026031800001000166000000000BRIBOVINDM18013
012026011574IBOVB166    070IBOVE  FM   IBO/      000R$  000000033800000000003670000000000328000000000036080800000003595000000000000000000000000000000015000000000000052510000000000189460650000001660000002026021800001000166000000000BRIBOVINDM18013
012026011574IBOVC167    070IBOVE  FM   IBO/      000R$  000000050250000000005220000000000502500000000050933300000005220000000000000000000000000000000003000000000000000300000000000001528000000001670000002026031800001000167000000000BRIBOVINDM18013
012026011574IBOVC168    070IBOVE  FM   IBO/      000R$  000000043700000000004370000000000437000000000043700000000004370000000000000000000000000000000001000000000000000600000000000002622000000001680000002026031800001000168000000000BRIBOVINDM18013
012026011574IBOVB167    070IBOVE  FM   IBO/      000R$  000000030050000000003220000000000280000000000029983500000003215000000000000000000000000000000005000000000000000213000000000000638650000001670000002026021800001000167000000000BRIBOVINDM18013
012026011574IBOVB168    070IBOVE  FM   IBO/      000R$  000000023750000000002845000000000227500000000025721000000002725000000000000000000000000000000007000000000000000702000000000001805620000001680000002026021800001000168000000000BRIBOVINDM18013
012026011574IBOVC176    070IBOVE       IBO/      000R$  000000016100000000001840000000000152500000000017920900000001825000000000071500000000000000000010000000000000012200000000000021863500000001760000002026031800001000176000000000BRIBOVINDM18013
012026011574IBOVE170    070IBOVE  FM   IBO/      000R$  000000073150000000007320000000000731500000000073166000000007320000000000000000000000000000000002000000000000100000000000000731660000000001700000002026051300001000170000000000BRIBOVINDM18013
012026011574IBOVB172    070IBOVE  FM   IBO/      000R$  000000010500000000001340000000000098500000000011432100000001115000000000000000000000011750000059000000000000743486000000000849967775000001720000002026021800001000172000000000BRIBOVINDM18013
012026011575IBOVP170    080IBOVE       IBO/      000R$  000000050350000000005035000000000503500000000050350000000005035000000000000000000000000000000001000000000000000100000000000000503500000001700000002026041500001000170000000000BRIBOVINDM18013
012026011575IBOVO160    080IBOVE  FM   IBO/      000R$  000000014000000000001400000000000125000000000013932000000001250000000000000000000000000000000004000000000000000530000000000000738400000001600000002026031800001000160000000000BRIBOVINDM18013
012026011575IBOVN159    080IBOVE  FM   IBO/      000R$  000000005700000000000575000000000051500000000005714000000000520000000000000000000000000000000006000000000000199700000000000114108800000001590000002026021800001000159000000000BRIBOVINDM18013
012026011575IBOVN165    080IBOVE  FM   IBO/      000R$  000000019050000000001915000000000189500000000019146500000001915000000000000000000000000000000005000000000000020500000000000039250500000001650000002026021800001000165000000000BRIBOVINDM18013
012026011575IBOVN151    080IBOVE       IBO/      000R$  000000001250000000000125000000000012500000000001250000000000125000000000000000000000000000000001000000000000002000000000000000250000000001510000002026021800001000151000000000BRIBOVINDM18013
012026011575IBOVN154    080IBOVE  FM   IBO/      000R$  000000002300000000000230000000000022500000000002274900000000225000000000000000000000000000000002000000000000004895000000000001113610000001540000002026021800001000154000000000BRIBOVINDM18013
012026011575IBOVN155    080IBOVE  FM   IBO/      000R$  000000002700000000000275000000000027000000000002727300000000275000000000000000000000000000000005000000000000008890000000000002424590000001550000002026021800001000155000000000BRIBOVINDM18013
012026011575IBOVN156    080IBOVE  FM   IBO/      000R$  000000003450000000000350000000000034500000000003478000000000350000000000000000000000000000000002000000000000079750000000000027737100000001560000002026021800001000156000000000BRIBOVINDM18013
012026011575IBOVN157    080IBOVE  FM   IBO/      000R$  000000003700000000000420000000000031000000000003488700000000360000000000000000000000005000000056000000000000040034000000000013966975000001570000002026021800001000157000000000BRIBOVINDM18013
012026011575IBOVN158    080IBOVE  FM   IBO/      000R$  000000004500000000000510000000000040000000000004503200000000400000000000000000000000000000000034000000000000015372000000000006922420000001580000002026021800001000158000000000BRIBOVINDM18013
012026011575IBOVN160    080IBOVE  FM   IBO/      000R$  000000007100000000000795000000000057500000000006274600000000665000000000000000000000000000000039000000000000004394000000000002757065000001600000002026021800001000160000000000BRIBOVINDM18013
012026011575IBOVN161    080IBOVE  FM   IBO/      000R$  000000008600000000000975000000000073500000000008478800000000820000000000000000000000000000000054000000000000010247000000000008688320000001610000002026021800001000161000000000BRIBOVINDM18013
012026011575IBOVN162    080IBOVE  FM   IBO/      000R$  000000011350000000001135000000000097500000000010601900000000975000000000000000000000000000000004000000000000041884000000000044405040000001620000002026021800001000162000000000BRIBOVINDM18013
012026011575IBOVN163    080IBOVE  FM   IBO/      000R$  000000012700000000001455000000000108500000000012690900000001255000000000000000000000029000000066000000000000208380000000000264453575000001630000002026021800001000163000000000BRIBOVINDM18013
012026011575IBOVO155    080IBOVE  FM   IBO/      000R$  000000006600000000000665000000000066000000000006606300000000665000000000000000000000000000000008000000000000500000000000000330315000000001550000002026031800001000155000000000BRIBOVINDM18013
012026011575IBOVP160    080IBOVE  FM   IBO/      000R$  000000020000000000002000000000000200000000000020000000000002000000000000000000000000000000000001000000000000000500000000000001000000000001600000002026041500001000160000000000BRIBOVINDM18013
012026011575IBOVO165    080IBOVE  FM   IBO/      000R$  000000025600000000002610000000000254500000000025711100000002580000000000000000000000000000000213000000000000041948000000000107852945000001650000002026031800001000165000000000BRIBOVINDM18013
012026011575IBOVR162    080IBOVE  FM   IBO/      000R$  000000029450000000002945000000000294500000000029450000000002945000000000000000000000000000000001000000000000000400000000000001178000000001620000002026061700001000162000000000BRIBOVINDM18013
012026011575IBOVP154    080IBOVE  FM   IBO/      000R$  000000010000000000001000000000000100000000000010000000000001000000000000000000000000000000000001000000000000000023000000000000023000000001540000002026041500001000154000000000BRIBOVINDM18013
012026011575IBOVO159    080IBOVE  FM   IBO/      000R$  000000011950000000001200000000000113500000000011729100000001200000000000000000000000000000000005000000000000002400000000000002815000000001590000002026031800001000159000000000BRIBOVINDM18013
012026011575IBOVN170    080IBOVE       IBO/      000R$  000000042600000000004780000000000394000000000043401700000004340000000000420000000000000000000120000000000000004619000000000020047280000001700000002026021800001000170000000000BRIBOVINDM18013
012026011575IBOVN18     080IBOVE       IBO/      000R$  000000127900000000012790000000001263000000000126517800000012630000000000000000000000000000000003000000000000688900000000008715814000000001800000002026021800001000180000000000BRIBOVINDM18013
012026011575IBOVR145    080IBOVE       IBO/      000R$  000000015550000000001555000000000155500000000015550000000001555000000000000000000000000000000001000000000000003000000000000004665000000001450000002026061700001000145000000000BRIBOVINDM18013
012026011575IBOVQ154    080IBOVE  FM   IBO/      000R$  000000013700000000001370000000000137000000000013700000000001370000000000000000000000000000000001000000000000000200000000000000274000000001540000002026051300001000154000000000BRIBOVINDM18013
012026011575IBOVO161    080IBOVE  FM   IBO/      000R$  000000014900000000001490000000000149000000000014900000000001490000000000000000000000000000000030000000000000004196000000000006252040000001610000002026031800001000161000000000BRIBOVINDM18013
012026011575IBOVO162    080IBOVE  FM   IBO/      000R$  000000017100000000001715000000000171000000000017122100000001715000000000155000000000000000000028000000000000004055000000000006943050000001620000002026031800001000162000000000BRIBOVINDM18013
012026011575IBOVO163    080IBOVE  FM   IBO/      000R$  000000019600000000001970000000000195500000000019611900000001955000000000000000000000000000000060000000000000009787000000000019194230000001630000002026031800001000163000000000BRIBOVINDM18013
012026011575IBOVO164    080IBOVE  FM   IBO/      000R$  000000022500000000002250000000000225000000000022500000000002250000000000000000000000000000000001000000000000000200000000000000450000000001640000002026031800001000164000000000BRIBOVINDM18013
012026011575IBOVN4      080IBOVE  FM   IBO/      000R$  000000015550000000001765000000000130500000000014575400000001480000000000000000000000000000000050000000000000008776000000000012791415000001640000002026021800001000164000000000BRIBOVINDM18013
012026011575IBOVP3      080IBOVE  FM   IBO/      000R$  000000030650000000003065000000000306500000000030650000000003065000000000000000000000000000000001000000000000000200000000000000613000000001640000002026041500001000164000000000BRIBOVINDM18013
012026011575IBOVO166    080IBOVE  FM   IBO/      000R$  000000030350000000003045000000000303500000000030400000000003045000000000000000000000000000000002000000000000000400000000000001216000000001660000002026031800001000166000000000BRIBOVINDM18013
012026011575IBOVN166    080IBOVE  FM   IBO/      000R$  000000024350000000002435000000000216000000000023750000000002180000000000000000000000000000000004000000000000002600000000000006175000000001660000002026021800001000166000000000BRIBOVINDM18013
012026011575IBOVO167    080IBOVE  FM   IBO/      000R$  000000032750000000003275000000000327500000000032750000000003275000000000000000000000000000000001000000000000000200000000000000655000000001670000002026031800001000167000000000BRIBOVINDM18013
012026011575IBOVO168    080IBOVE       IBO/      000R$  000000038650000000003865000000000374000000000038050000000003740000000000000000000000000000000003000000000000000600000000000002283000000001680000002026031800001000168000000000BRIBOVINDM18013
012026011575IBOVQ167    080IBOVE  FM   IBO/      000R$  000000040550000000004055000000000405500000000040550000000004055000000000000000000000000000000001000000000000000200000000000000811000000001670000002026051300001000167000000000BRIBOVINDM18013
012026011575IBOVN167    080IBOVE  FM   IBO/      000R$  000000028550000000003005000000000242000000000028110000000002620000000000000000000000000000000015000000000000004000000000000011244000000001670000002026021800001000167000000000BRIBOVINDM18013
012026011575IBOVN168    080IBOVE       IBO/      000R$  000000029000000000002980000000000290000000000029440000000002970000000000000000000000000000000003000000000000000500000000000001472000000001680000002026021800001000168000000000BRIBOVINDM18013
012026011532IBOVA162D3E 012IBOVE       IBO/      000R$  000001620000000000162000000000016200000000001620000000000162000000000000000000000000000000000001000000000000000001000000000000162000000001620000002026011500001000162000000000BRIBOVINDM18014
012026011532IBOVA163D3E 012IBOVE       IBO/      000R$  000001630000000000163000000000016300000000001630000000000163000000000000000000000000000000000001000000000000000001000000000000163000000001630000002026011500001000163000000000BRIBOVINDM18014
012026011532IBOVA164D3E 012IBOVE       IBO/      000R$  000001640000000000164000000000016400000000001640000000000164000000000000000000000000000000000004000000000000000113000000000018532000000001640000002026011500001000164000000000BRIBOVINDM18014
012026011532IBOVA165D3E 012IBOVE       IBO/      000R$  000001650000000000165000000000016500000000001650000000000165000000000000000000000000000000000003000000000000000100000000000016500000000001650000002026011500001000165000000000BRIBOVINDM18014
012026011574IBOVC169    070IBOVE  FM   IBO/      000R$  000000040300000000004260000000000397000000000040087700000004260000000000000000000000000000000006000000000000003400000000000013629840000001690000002026031800001000169000000000BRIBOVINDM18014
012026011574IBOVB169    070IBOVE  FM   IBO/      000R$  000000019400000000002380000000000186500000000019577300000002270000000000000000000000000000000007000000000000000106000000000000207520000001690000002026021800001000169000000000BRIBOVINDM18014
012026011574IBOVA160W3  070IBOVE       IBO/      000R$  000000055000000000005500000000000550000000000055000000000005500000000000000000000000000000000002000000000000002000000000000011000000000001600000002026012100001000160000000000BRIBOVINDM18014
012026011574IBOVA164W3  070IBOVE  FM   IBO/      000R$  000000022750000000002275000000000227500000000022750000000002275000000000000000000000000000000001000000000000001000000000000002275000000001640000002026012100001000164000000000BRIBOVINDM18014
012026011574IBOVA166W3  070IBOVE  FM   IBO/      000R$  000000010050000000001225000000000098000000000010675000000001225000000000000000000000000000000005000000000000000600000000000000640500000001660000002026012100001000166000000000BRIBOVINDM18014
012026011574IBOVA167W3  070IBOVE  FM   IBO/      000R$  000000006400000000000640000000000053000000000005553800000000530000000000000000000000000000000004000000000000001300000000000000722000000001670000002026012100001000167000000000BRIBOVINDM18014
012026011574IBOVA163W4  070IBOVE  FM   IBO/      000R$  000000038000000000004000000000000376000000000038383900000003875000000000000000000000045000000006000000000000003003000000000011526700000001630000002026012800001000163000000000BRIBOVINDM18014
012026011574IBOVA166W4  070IBOVE  FM   IBO/      000R$  000000018300000000002080000000000168500000000017546100000002050000000000000000000000000000000004000000000000000013000000000000022810000001660000002026012800001000166000000000BRIBOVINDM18014
012026011574IBOVA167W4  070IBOVE  FM   IBO/      000R$  000000015750000000001575000000000157500000000015750000000001575000000000000000000000000000000001000000000000000005000000000000007875000001670000002026012800001000167000000000BRIBOVINDM18014
012026011574IBOVD184    070IBOVE       IBO/      000R$  000000011600000000001325000000000109500000000012993700000001305000000000000000000000000000000015000000000000556000000000000722452000000001850000002026041500001000185000000000BRIBOVINDM18014
012026011574IBOVE185    070IBOVE       IBO/      000R$  000000019800000000001980000000000198000000000019800000000001980000000000080000000000000000000001000000000000002182000000000004320360000001850000002026051300001000185000000000BRIBOVINDM18014
012026011574IBOVG175    070IBOVE  FM   IBO/      000R$  000000083850000000008620000000000823500000000083822700000008340000000000000000000000000000000008000000000000001100000000000009220500000001750000002026071500001000175000000000BRIBOVINDM18014
012026011574IBOVC172    070IBOVE  FM   IBO/      000R$  000000031150000000003115000000000298000000000030280500000002980000000000000000000000000000000006000000000000012100000000000036639485000001720000002026031800001000172000000000BRIBOVINDM18014
012026011574IBOVD171    070IBOVE  FM   IBO/      000R$  000000050750000000005075000000000494500000000050316600000004945000000000000000000000000000000002000000000000000300000000000001509500000001710000002026041500001000171000000000BRIBOVINDM18014
012026011574IBOVC171    070IBOVE  FM   IBO/      000R$  000000031000000000003100000000000310000000000031000000000003100000000000000000000000000000000001000000000000000100000000000000310000000001710000002026031800001000171000000000BRIBOVINDM18014
012026011574IBOVB171    070IBOVE  FM   IBO/      000R$  000000012900000000001630000000000122500000000012880900000001630000000000000000000000000000000008000000000000015302000000000019710385000001710000002026021800001000171000000000BRIBOVINDM18014
012026011574IBOVD173    070IBOVE  FM   IBO/      000R$  000000040800000000004080000000000408000000000040800000000004080000000000000000000000000000000001000000000000000100000000000000408000000001730000002026041500001000173000000000BRIBOVINDM18014
012026011574IBOVC174    070IBOVE  FM   IBO/      000R$  000000021500000000002400000000000199000000000021291600000002400000000000000000000000000000000005000000000000001200000000000002555000000001740000002026031800001000174000000000BRIBOVINDM18014
012026011574IBOVC175    070IBOVE  FM   IBO/      000R$  000000018750000000002120000000000182000000000020810200000002110000000000000000000000000000000018000000000000022000000000000045782500000001750000002026031800001000175000000000BRIBOVINDM18014
012026011574IBOVB173    070IBOVE  FM   IBO/      000R$  000000010300000000001100000000000091000000000010448500000000910000000000000000000000000000000014000000000000080402000000000084008155000001730000002026021800001000173000000000BRIBOVINDM18014
012026011574IBOVF153    070IBOVE       IBO/      000R$  000000195150000000019515000000001951000000000195110000000019510000000000000000000000000000000002000000000000008000000000000156088000000001540000002026061700001000154000000000BRIBOVINDM18014
012026011574IBOVD4      070IBOVE  FM   IBO/      000R$  000000037000000000003700000000000370000000000037000000000003700000000000000000000000000000000001000000000000000100000000000000370000000001740000002026041500001000174000000000BRIBOVINDM18014
012026011574IBOVD177    070IBOVE       IBO/      000R$  000000027200000000002720000000000270000000000027125000000002700000000000000000000000000000000008000000000000000800000000000002170000000001770000002026041500001000177000000000BRIBOVINDM18014
012026011574IBOVA163D3  070IBOVE       IBO/      000R$  000000022700000000002270000000000213000000000022350000000002130000000000000000000000000000000002000000000000000020000000000000044700000001630000002026011500001000163000000000BRIBOVINDM18014
012026011574IBOVA164D3  070IBOVE       IBO/      000R$  000000012350000000001800000000000122000000000015102400000001800000000000000000000000000000000003000000000000000205000000000000309600000001640000002026011500001000164000000000BRIBOVINDM18014
012026011574IBOVA165D3  070IBOVE       IBO/      000R$  000000008600000000000860000000000060500000000007490400000000605000000000019000000000000000000004000000000000000021000000000000015730000001650000002026011500001000165000000000BRIBOVINDM18014
012026011574IBOVA166D3  070IBOVE       IBO/      000R$  000000001600000000000160000000000006500000000001220000000000065000000000000000000000000000000002000000000000000250000000000000030500000001660000002026011500001000166000000000BRIBOVINDM18014
012026011574IBOVA166B4  070IBOVE  FM   IBO/      000R$  000000009700000000000970000000000085000000000009071400000000920000000000000000000000000000000003000000000000000007000000000000006350000001660000002026012000001000166000000000BRIBOVINDM18014
012026011574IBOVA164E4  070IBOVE  FM   IBO/      000R$  000000024900000000002925000000000249000000000026425300000002925000000000000000000000000000000002000000000000000154000000000000406950000001640000002026012300001000164000000000BRIBOVINDM18014
012026011574IBOVA172W4  070IBOVE       IBO/      000R$  000000002650000000000265000000000026000000000002622500000000260000000000000000000000000000000002000000000000200000000000000052450000000001720000002026012800001000172000000000BRIBOVINDM18014
012026011574IBOVA164E3  070IBOVE  FM   IBO/      000R$  000000015250000000001710000000000139000000000015452600000001710000000000000000000000000000000003000000000000000038000000000000058720000001640000002026011600001000164000000000BRIBOVINDM18014
012026011574IBOVA165E3  070IBOVE  FM   IBO/      000R$  000000011500000000001150000000000080000000000010662500000001050000000000000000000000000000000004000000000000000160000000000000170600000001650000002026011600001000165000000000BRIBOVINDM18014
012026011574IBOVA166E3  070IBOVE  FM   IBO/      000R$  000000003900000000000650000000000025000000000005815700000000355000000000000000000000000000000005000000000000000635000000000000369300000001660000002026011600001000166000000000BRIBOVINDM18014
012026011574IBOVA167E3  070IBOVE  FM   IBO/      000R$  000000001700000000000170000000000012500000000001422200000000160000000000000000000000000000000004000000000000000126000000000000017920000001670000002026011600001000167000000000BRIBOVINDM18014
012026011574IBOVA169E3  070IBOVE  FM   IBO/      000R$  000000000350000000000035000000000003500000000000350000000000035000000000000000000000000000000001000000000000000001000000000000000035000001690000002026011600001000169000000000BRIBOVINDM18014
012026011574IBOVA170E3  070IBOVE  FM   IBO/      000R$  000000000200000000000020000000000002000000000000200000000000020000000000000000000000000000000001000000000000000001000000000000000020000001700000002026011600001000170000000000BRIBOVINDM18014
012026011574IBOVA165A3  070IBOVE  FM   IBO/      000R$  000000012200000000001220000000000122000000000012200000000001220000000000000000000000000000000001000000000000000001000000000000001220000001650000002026011900001000165000000000BRIBOVINDM18014
012026011574IBOVA166A3  070IBOVE  FM   IBO/      000R$  000000009300000000000930000000000093000000000009300000000000930000000000000000000000000000000001000000000000000375000000000000348750000001660000002026011900001000166000000000BRIBOVINDM18014
012026011574IBOVA169A3  070IBOVE  FM   IBO/      000R$  000000000550000000000055000000000005500000000000550000000000055000000000000000000000000000000001000000000000000200000000000000011000000001690000002026011900001000169000000000BRIBOVINDM18014
012026011574IBOVB5      070IBOVE  FM   IBO/      000R$  000000007900000000000845000000000079000000000007904300000000845000000000000000000000000000000002000000000000050400000000000039838000000001740000002026021800001000174000000000BRIBOVINDM18014
012026011575IBOVO169    080IBOVE       IBO/      000R$  000000042350000000004260000000000399000000000041662500000003990000000000000000000000000000000004000000000000000800000000000003333000000001690000002026031800001000169000000000BRIBOVINDM18014
012026011575IBOVM151W3  080IBOVE       IBO/      000R$  000000000100000000000010000000000001000000000000100000000000010000000000000000000000000000000003000000000000022680000000000000226800000001510000002026012100001000151000000000BRIBOVINDM18014
012026011575IBOVM164W3  080IBOVE  FM   IBO/      000R$  000000006000000000000690000000000058000000000006837500000000580000000000000000000000000000000003000000000000000320000000000000218800000001640000002026012100001000164000000000BRIBOVINDM18014
012026011575IBOVM162W4  080IBOVE  FM   IBO/      000R$  000000003950000000000395000000000039500000000003950000000000395000000000000000000000000000000001000000000000125000000000000049375000000001620000002026012800001000162000000000BRIBOVINDM18014
012026011575IBOVM163W4  080IBOVE  FM   IBO/      000R$  000000007100000000000710000000000070000000000007026600000000700000000000000000000000000000000004000000000000010000000000000007026645000001630000002026012800001000163000000000BRIBOVINDM18014
012026011575IBOVP171    080IBOVE       IBO/      000R$  000000054000000000005400000000000540000000000054000000000005400000000000000000000000000000000001000000000000000200000000000001080000000001710000002026041500001000171000000000BRIBOVINDM18014
012026011575IBOVM165D3  080IBOVE       IBO/      000R$  000000003000000000000300000000000001500000000000378100000000015000000000000000000000000000000005000000000000003242000000000000122600000001650000002026011500001000165000000000BRIBOVINDM18014
012026011575IBOVM164B5  080IBOVE  FM   IBO/      000R$  000000007350000000000735000000000073500000000007350000000000735000000000000000000000000000000002000000000000000040000000000000029400000001640000002026012700001000164000000000BRIBOVINDM18014
012026011575IBOVM163E3  080IBOVE  FM   IBO/      000R$  000000001000000000000100000000000004500000000000451000000000045000000000000000000000000000000002000000000000000501000000000000022600000001630000002026011600001000163000000000BRIBOVINDM18014
012026011575IBOVM166E3  080IBOVE       IBO/      000R$  000000008050000000000805000000000080500000000008050000000000805000000000010000000000000000000001000000000000000020000000000000016100000001660000002026011600001000166000000000BRIBOVINDM18014
012026011575IBOVM160A3  080IBOVE  FM   IBO/      000R$  000000000200000000000020000000000002000000000000200000000000020000000000000000000000000000000001000000000000000200000000000000004000000001600000002026011900001000160000000000BRIBOVINDM18014
012026011574IBOVG163    070IBOVE  FM   IBO/      000R$  000000153650000000016010000000001536500000000158605000000015865000000000000000000000000000000006000000000000001000000000000015860500000001630000002026071500001000163000000000BRIBOVINDM18015
012026011574IBOVG162    070IBOVE  FM   IBO/      000R$  000000159650000000015965000000001596500000000159650000000015965000000000000000000000000000000001000000000000000100000000000001596500000001620000002026071500001000162000000000BRIBOVINDM18015
012026011574IBOVG164    070IBOVE  FM   IBO/      000R$  000000153200000000015320000000001518000000000152105700000015180000000000000000000000000000000002000000000000003480000000000052932800000001640000002026071500001000164000000000BRIBOVINDM18015
012026011574IBOVA17     070IBOVE       IBO/      000R$  000000201000000000020100000000002010000000000201000000000020100000000000000000000000000000000001000000000000005000000000000100500000000001730000002027011300001000173000000000BRIBOVINDM18015
012026011574IBOVA168W3  070IBOVE  FM   IBO/      000R$  000000003950000000000395000000000039500000000003950000000000395000000000000000000000000000000008000000000000000800000000000000316000000001680000002026012100001000168000000000BRIBOVINDM18015
012026011574IBOVA168W4  070IBOVE  FM   IBO/      000R$  000000009200000000000920000000000092000000000009200000000000920000000000000000000000000000000001000000000000000100000000000000092000000001680000002026012800001000168000000000BRIBOVINDM18015
012026011574IBOVA171    070IBOVE       IBO/      000R$  000000201500000000020150000000002014500000000201460000000020145000000000000000000000000000000002000000000000004000000000000080584000000001710000002027011300001000171000000000BRIBOVINDM18015
012026011574IBOVB176W2  070IBOVE       IBO/      000R$  000000002700000000000270000000000027000000000002700000000000270000000000000000000000000000000001000000000000005400000000000001458000000001760000002026021100001000176000000000BRIBOVINDM18015
012026011574IBOVA171W4  070IBOVE       IBO/      000R$  000000004250000000000425000000000042000000000004214000000000420000000000000000000000000000000002000000000000125000000000000052675000000001710000002026012800001000171000000000BRIBOVINDM18015
012026011575IBOVS163    080IBOVE  FM   IBO/      000R$  000000034200000000003475000000000341500000000034556200000003475000000000000000000000000000000004000000000000000800000000000002764500000001630000002026071500001000163000000000BRIBOVINDM18015
012026011575IBOVS164    080IBOVE  FM   IBO/      000R$  000000037000000000003720000000000370000000000037156300000003720000000000000000000000000000000002000000000000003480000000000012930400000001640000002026071500001000164000000000BRIBOVINDM18015
012026011575IBOVS154    080IBOVE  FM   IBO/      000R$  000000019450000000001945000000000191500000000019300000000001915000000000000000000000000000000002000000000000000400000000000000772000000001540000002026071500001000154000000000BRIBOVINDM18015
012026011575IBOVS153    080IBOVE  FM   IBO/      000R$  000000017950000000001795000000000179500000000017950000000001795000000000000000000000000000000001000000000000000200000000000000359000000001530000002026071500001000153000000000BRIBOVINDM18015
